{
  "address": "0xe7f1725E7734CE288F8367e1Bb143E90bb3F0512",
  "abi": [
    {
      "inputs": [],
      "stateMutability": "nonpayable",
      "type": "constructor"
    },
    {
      "anonymous": false,
      "inputs": [],
      "name": "ContractKilled",
      "type": "event"
    },
    {
      "anonymous": false,
      "inputs": [
        {
          "indexed": false,
          "internalType": "address",
          "name": "oldValue",
          "type": "address"
        },
        {
          "indexed": false,
          "internalType": "address",
          "name": "newValue",
          "type": "address"
        }
      ],
      "name": "DexPairAddressChanged",
      "type": "event"
    },
    {
      "anonymous": false,
      "inputs": [
        {
          "indexed": true,
          "internalType": "bytes32",
          "name": "role",
          "type": "bytes32"
        },
        {
          "indexed": true,
          "internalType": "bytes32",
          "name": "previousAdminRole",
          "type": "bytes32"
        },
        {
          "indexed": true,
          "internalType": "bytes32",
          "name": "newAdminRole",
          "type": "bytes32"
        }
      ],
      "name": "RoleAdminChanged",
      "type": "event"
    },
    {
      "anonymous": false,
      "inputs": [
        {
          "indexed": true,
          "internalType": "bytes32",
          "name": "role",
          "type": "bytes32"
        },
        {
          "indexed": true,
          "internalType": "address",
          "name": "account",
          "type": "address"
        },
        {
          "indexed": true,
          "internalType": "address",
          "name": "sender",
          "type": "address"
        }
      ],
      "name": "RoleGranted",
      "type": "event"
    },
    {
      "anonymous": false,
      "inputs": [
        {
          "indexed": true,
          "internalType": "bytes32",
          "name": "role",
          "type": "bytes32"
        },
        {
          "indexed": true,
          "internalType": "address",
          "name": "account",
          "type": "address"
        },
        {
          "indexed": true,
          "internalType": "address",
          "name": "sender",
          "type": "address"
        }
      ],
      "name": "RoleRevoked",
      "type": "event"
    },
    {
      "anonymous": false,
      "inputs": [
        {
          "indexed": false,
          "internalType": "uint256",
          "name": "oldValue",
          "type": "uint256"
        },
        {
          "indexed": false,
          "internalType": "uint256",
          "name": "newValue",
          "type": "uint256"
        }
      ],
      "name": "StablePriceUpdated",
      "type": "event"
    },
    {
      "anonymous": false,
      "inputs": [
        {
          "indexed": false,
          "internalType": "uint256",
          "name": "oldValue",
          "type": "uint256"
        },
        {
          "indexed": false,
          "internalType": "uint256",
          "name": "newValue",
          "type": "uint256"
        }
      ],
      "name": "TokenPriceUpdated",
      "type": "event"
    },
    {
      "anonymous": false,
      "inputs": [
        {
          "indexed": true,
          "internalType": "address",
          "name": "tokenAddress",
          "type": "address"
        },
        {
          "indexed": true,
          "internalType": "address",
          "name": "userAddress",
          "type": "address"
        },
        {
          "indexed": false,
          "internalType": "uint256",
          "name": "amount",
          "type": "uint256"
        }
      ],
      "name": "TokensSalvaged",
      "type": "event"
    },
    {
      "inputs": [],
      "name": "DEFAULT_ADMIN_ROLE",
      "outputs": [
        {
          "internalType": "bytes32",
          "name": "",
          "type": "bytes32"
        }
      ],
      "stateMutability": "view",
      "type": "function"
    },
    {
      "inputs": [],
      "name": "MODERATOR_ROLE",
      "outputs": [
        {
          "internalType": "bytes32",
          "name": "",
          "type": "bytes32"
        }
      ],
      "stateMutability": "view",
      "type": "function"
    },
    {
      "inputs": [],
      "name": "getDexPairAddress",
      "outputs": [
        {
          "internalType": "address",
          "name": "",
          "type": "address"
        }
      ],
      "stateMutability": "view",
      "type": "function"
    },
    {
      "inputs": [
        {
          "internalType": "bytes32",
          "name": "role",
          "type": "bytes32"
        }
      ],
      "name": "getRoleAdmin",
      "outputs": [
        {
          "internalType": "bytes32",
          "name": "",
          "type": "bytes32"
        }
      ],
      "stateMutability": "view",
      "type": "function"
    },
    {
      "inputs": [
        {
          "internalType": "bytes32",
          "name": "role",
          "type": "bytes32"
        },
        {
          "internalType": "uint256",
          "name": "index",
          "type": "uint256"
        }
      ],
      "name": "getRoleMember",
      "outputs": [
        {
          "internalType": "address",
          "name": "",
          "type": "address"
        }
      ],
      "stateMutability": "view",
      "type": "function"
    },
    {
      "inputs": [
        {
          "internalType": "bytes32",
          "name": "role",
          "type": "bytes32"
        }
      ],
      "name": "getRoleMemberCount",
      "outputs": [
        {
          "internalType": "uint256",
          "name": "",
          "type": "uint256"
        }
      ],
      "stateMutability": "view",
      "type": "function"
    },
    {
      "inputs": [],
      "name": "getStableAddress",
      "outputs": [
        {
          "internalType": "address",
          "name": "",
          "type": "address"
        }
      ],
      "stateMutability": "view",
      "type": "function"
    },
    {
      "inputs": [],
      "name": "getStableDecimals",
      "outputs": [
        {
          "internalType": "uint8",
          "name": "",
          "type": "uint8"
        }
      ],
      "stateMutability": "view",
      "type": "function"
    },
    {
      "inputs": [],
      "name": "getStablePrice",
      "outputs": [
        {
          "internalType": "uint256",
          "name": "",
          "type": "uint256"
        }
      ],
      "stateMutability": "view",
      "type": "function"
    },
    {
      "inputs": [],
      "name": "getTokenAddress",
      "outputs": [
        {
          "internalType": "address",
          "name": "",
          "type": "address"
        }
      ],
      "stateMutability": "view",
      "type": "function"
    },
    {
      "inputs": [],
      "name": "getTokenDecimals",
      "outputs": [
        {
          "internalType": "uint8",
          "name": "",
          "type": "uint8"
        }
      ],
      "stateMutability": "view",
      "type": "function"
    },
    {
      "inputs": [],
      "name": "getTokenPrice",
      "outputs": [
        {
          "internalType": "uint256",
          "name": "",
          "type": "uint256"
        }
      ],
      "stateMutability": "view",
      "type": "function"
    },
    {
      "inputs": [
        {
          "internalType": "bytes32",
          "name": "role",
          "type": "bytes32"
        },
        {
          "internalType": "address",
          "name": "account",
          "type": "address"
        }
      ],
      "name": "grantRole",
      "outputs": [],
      "stateMutability": "nonpayable",
      "type": "function"
    },
    {
      "inputs": [
        {
          "internalType": "bytes32",
          "name": "role",
          "type": "bytes32"
        },
        {
          "internalType": "address",
          "name": "account",
          "type": "address"
        }
      ],
      "name": "hasRole",
      "outputs": [
        {
          "internalType": "bool",
          "name": "",
          "type": "bool"
        }
      ],
      "stateMutability": "view",
      "type": "function"
    },
    {
      "inputs": [
        {
          "internalType": "address",
          "name": "defaultAdminAddress_",
          "type": "address"
        },
        {
          "internalType": "address",
          "name": "moderatorAddress_",
          "type": "address"
        },
        {
          "internalType": "address",
          "name": "tokenAddress_",
          "type": "address"
        },
        {
          "internalType": "address",
          "name": "dexPairAddress_",
          "type": "address"
        }
      ],
      "name": "init",
      "outputs": [],
      "stateMutability": "nonpayable",
      "type": "function"
    },
    {
      "inputs": [],
      "name": "isInitialised",
      "outputs": [
        {
          "internalType": "bool",
          "name": "",
          "type": "bool"
        }
      ],
      "stateMutability": "view",
      "type": "function"
    },
    {
      "inputs": [],
      "name": "killContract",
      "outputs": [],
      "stateMutability": "nonpayable",
      "type": "function"
    },
    {
      "inputs": [
        {
          "internalType": "bytes32",
          "name": "role",
          "type": "bytes32"
        },
        {
          "internalType": "address",
          "name": "account",
          "type": "address"
        }
      ],
      "name": "renounceRole",
      "outputs": [],
      "stateMutability": "nonpayable",
      "type": "function"
    },
    {
      "inputs": [
        {
          "internalType": "bytes32",
          "name": "role",
          "type": "bytes32"
        },
        {
          "internalType": "address",
          "name": "account",
          "type": "address"
        }
      ],
      "name": "revokeRole",
      "outputs": [],
      "stateMutability": "nonpayable",
      "type": "function"
    },
    {
      "inputs": [
        {
          "internalType": "address",
          "name": "tokenAddress_",
          "type": "address"
        },
        {
          "internalType": "address",
          "name": "to_",
          "type": "address"
        },
        {
          "internalType": "uint256",
          "name": "amount_",
          "type": "uint256"
        }
      ],
      "name": "salvageTokensFromContract",
      "outputs": [],
      "stateMutability": "nonpayable",
      "type": "function"
    },
    {
      "inputs": [
        {
          "internalType": "address",
          "name": "dexPairAddress_",
          "type": "address"
        },
        {
          "internalType": "address",
          "name": "tokenAddress_",
          "type": "address"
        }
      ],
      "name": "setDexPairAddress",
      "outputs": [],
      "stateMutability": "nonpayable",
      "type": "function"
    },
    {
      "inputs": [
        {
          "internalType": "bytes4",
          "name": "interfaceId",
          "type": "bytes4"
        }
      ],
      "name": "supportsInterface",
      "outputs": [
        {
          "internalType": "bool",
          "name": "",
          "type": "bool"
        }
      ],
      "stateMutability": "view",
      "type": "function"
    }
  ],
  "transactionHash": "0x7ace40565099c2fcdcbbc3d7cb2dff53bd0ac4cb5a31a252db2c5dadbe99a5a6",
  "args": [],
  "numDeployments": 1,
  "solcInputHash": "ae66bd39a33e3eba6c1f6e14bd3b58af",
  "bytecode": "0x60806040523480156200001157600080fd5b506200001f60003362000025565b6200017b565b6200003c82826200006860201b620009ec1760201c565b60008281526001602090815260409091206200006391839062000a7062000109821b17901c565b505050565b6000828152602081815260408083206001600160a01b038516845290915290205460ff1662000105576000828152602081815260408083206001600160a01b03851684529091529020805460ff19166001179055620000c43390565b6001600160a01b0316816001600160a01b0316837f2f8788117e7eff1d82e926ec794901d17c78024a50270940304540a733656f0d60405160405180910390a45b5050565b600062000120836001600160a01b03841662000129565b90505b92915050565b6000818152600183016020526040812054620001725750815460018181018455600084815260208082209093018490558454848252828601909352604090209190915562000123565b50600062000123565b611723806200018b6000396000f3fe608060405234801561001057600080fd5b50600436106101425760003560e01c80639010d07c116100b8578063a217fddf1161007c578063a217fddf146102b7578063ca15c873146102bf578063d547741f146102d2578063ec9e0393146102e5578063f5815144146102ed578063fb584b23146102fe57600080fd5b80639010d07c1461025957806391d148541461026c5780639b27d9b21461027f5780639ed3c90c14610292578063a0929cda146102a457600080fd5b806324f65ee71161010a57806324f65ee7146101e25780632f2ff15d146101fc57806336568abe1461020f5780634b94f50e14610222578063797669c91461022a5780637a5b5a1d1461025157600080fd5b806301ffc9a71461014757806306552ff31461016f57806310fe9ae8146101845780631c02708d146101a9578063248a9ca3146101b1575b600080fd5b61015a610155366004611200565b61030f565b60405190151581526020015b60405180910390f35b61018261017d36600461123f565b61033a565b005b6002546001600160a01b03165b6040516001600160a01b039091168152602001610166565b61018261040e565b6101d46101bf36600461129b565b60009081526020819052604090206001015490565b604051908152602001610166565b6101ea610445565b60405160ff9091168152602001610166565b61018261020a3660046112b4565b6104c7565b61018261021d3660046112b4565b6104f1565b6101d461056f565b6101d47f71f3d55856e4058ed06ee057d79ada615f65cdf5f9ee88181b914225088f834f81565b6101ea61066e565b6101916102673660046112e4565b6106b3565b61015a61027a3660046112b4565b6106d2565b61018261028d366004611306565b6106fb565b600654600160a01b900460ff1661015a565b6101826102b2366004611334565b6107cc565b6101d4600081565b6101d46102cd36600461129b565b6108ad565b6101826102e03660046112b4565b6108c4565b6101d46108e9565b6003546001600160a01b0316610191565b6006546001600160a01b0316610191565b60006001600160e01b03198216635a05180f60e01b1480610334575061033482610a85565b92915050565b600061034581610aba565b600654600160a01b900460ff16156103a45760405162461bcd60e51b815260206004820181905260248201527f436f6e747261637420697320616c726561647920696e697469616c697365642160448201526064015b60405180910390fd5b6103af600086610ac7565b6103d97f71f3d55856e4058ed06ee057d79ada615f65cdf5f9ee88181b914225088f834f85610ac7565b6103e38284610ae9565b6006805460ff60a01b1916600160a01b17905561040760006104023390565b610de2565b5050505050565b600061041981610aba565b6040517f57ba5b229dec138f5bae2e9a20b8035310ff14ea10b05bdbfa410625f867c79190600090a133ff5b6002546040805163313ce56760e01b815290516000926001600160a01b03169163313ce567916004808301926020929190829003018186803b15801561048a57600080fd5b505afa15801561049e573d6000803e3d6000fd5b505050506040513d601f19601f820116820180604052508101906104c29190611375565b905090565b6000828152602081905260409020600101546104e281610aba565b6104ec8383610ac7565b505050565b6001600160a01b03811633146105615760405162461bcd60e51b815260206004820152602f60248201527f416363657373436f6e74726f6c3a2063616e206f6e6c792072656e6f756e636560448201526e103937b632b9903337b91039b2b63360891b606482015260840161039b565b61056b8282610de2565b5050565b6000806000600660009054906101000a90046001600160a01b03166001600160a01b0316630902f1ac6040518163ffffffff1660e01b815260040160606040518083038186803b1580156105c257600080fd5b505afa1580156105d6573d6000803e3d6000fd5b505050506040513d601f19601f820116820180604052508101906105fa91906113b4565b506001600160701b031691506001600160701b03169150600061061b610445565b61062690600a6114fe565b61063190600161150d565b600654909150600160a81b900460ff16156106635782610651828461150d565b61065b919061152c565b935050505090565b81610651828561150d565b6003546040805163313ce56760e01b815290516000926001600160a01b03169163313ce567916004808301926020929190829003018186803b15801561048a57600080fd5b60008281526001602052604081206106cb9083610e04565b9392505050565b6000918252602082815260408084206001600160a01b0393909316845291905290205460ff1690565b7f71f3d55856e4058ed06ee057d79ada615f65cdf5f9ee88181b914225088f834f61072581610aba565b6006546001600160a01b038481169116141561077b5760405162461bcd60e51b815260206004820152601560248201527456616c756520697320616c7265616479207365742160581b604482015260640161039b565b600654604080516001600160a01b03928316815291851660208301527f2de6f4d4f681869e9a1b66ba6554751fc4d69ea8c2b7556433c2362b000791e8910160405180910390a16104ec8383610ae9565b60006107d781610aba565b60405163a9059cbb60e01b81526001600160a01b0384811660048301526024820184905285169063a9059cbb90604401602060405180830381600087803b15801561082157600080fd5b505af1158015610835573d6000803e3d6000fd5b505050506040513d601f19601f82011682018060405250810190610859919061154e565b50826001600160a01b0316846001600160a01b03167fc00a88ee4656f9bf9caef53a29be902b0017cf1e454eaed6526c08b8c2e106cf8460405161089f91815260200190565b60405180910390a350505050565b600081815260016020526040812061033490610e10565b6000828152602081905260409020600101546108df81610aba565b6104ec8383610de2565b6000806000600660009054906101000a90046001600160a01b03166001600160a01b0316630902f1ac6040518163ffffffff1660e01b815260040160606040518083038186803b15801561093c57600080fd5b505afa158015610950573d6000803e3d6000fd5b505050506040513d601f19601f8201168201806040525081019061097491906113b4565b5091509150600061098361066e565b61098e90600a6114fe565b61099990600161150d565b600654909150600160a81b900460ff16156109cd57816001600160701b031681846001600160701b0316610651919061150d565b826001600160701b031681836001600160701b0316610651919061150d565b6109f682826106d2565b61056b576000828152602081815260408083206001600160a01b03851684529091529020805460ff19166001179055610a2c3390565b6001600160a01b0316816001600160a01b0316837f2f8788117e7eff1d82e926ec794901d17c78024a50270940304540a733656f0d60405160405180910390a45050565b60006106cb836001600160a01b038416610e1a565b60006001600160e01b03198216637965db0b60e01b148061033457506301ffc9a760e01b6001600160e01b0319831614610334565b610ac48133610e69565b50565b610ad182826109ec565b60008281526001602052604090206104ec9082610a70565b600680546001600160a01b03199081166001600160a01b038581169182179093556002805490921692841692831790915560408051630dfe168160e01b81529051630dfe168191600481810192602092909190829003018186803b158015610b5057600080fd5b505afa158015610b64573d6000803e3d6000fd5b505050506040513d601f19601f82011682018060405250810190610b889190611570565b6001600160a01b03161415610c5657600660009054906101000a90046001600160a01b03166001600160a01b031663d21220a76040518163ffffffff1660e01b815260040160206040518083038186803b158015610be557600080fd5b505afa158015610bf9573d6000803e3d6000fd5b505050506040513d601f19601f82011682018060405250810190610c1d9190611570565b600380546001600160a01b03929092166001600160a01b03199092169190911790556006805460ff60a81b1916600160a81b1790555050565b6006546040805163d21220a760e01b815290516001600160a01b0380851693169163d21220a7916004808301926020929190829003018186803b158015610c9c57600080fd5b505afa158015610cb0573d6000803e3d6000fd5b505050506040513d601f19601f82011682018060405250810190610cd49190611570565b6001600160a01b03161415610d9a57600660009054906101000a90046001600160a01b03166001600160a01b0316630dfe16816040518163ffffffff1660e01b815260040160206040518083038186803b158015610d3157600080fd5b505afa158015610d45573d6000803e3d6000fd5b505050506040513d601f19601f82011682018060405250810190610d699190611570565b600380546001600160a01b0319166001600160a01b039290921691909117905550506006805460ff60a81b19169055565b60405162461bcd60e51b815260206004820152601c60248201527f546f6b656e4164647265737320696e206e6f7420696e20706169722100000000604482015260640161039b565b610dec8282610ecd565b60008281526001602052604090206104ec9082610f32565b60006106cb8383610f47565b6000610334825490565b6000818152600183016020526040812054610e6157508154600181810184556000848152602080822090930184905584548482528286019093526040902091909155610334565b506000610334565b610e7382826106d2565b61056b57610e8b816001600160a01b03166014610f71565b610e96836020610f71565b604051602001610ea79291906115bd565b60408051601f198184030181529082905262461bcd60e51b825261039b91600401611632565b610ed782826106d2565b1561056b576000828152602081815260408083206001600160a01b0385168085529252808320805460ff1916905551339285917ff6391f5c32d9c69d2a47ea670b442974b53935d1edc7fd64eb21e047a839171b9190a45050565b60006106cb836001600160a01b03841661110d565b6000826000018281548110610f5e57610f5e611665565b9060005260206000200154905092915050565b60606000610f8083600261150d565b610f8b90600261167b565b67ffffffffffffffff811115610fa357610fa3611693565b6040519080825280601f01601f191660200182016040528015610fcd576020820181803683370190505b509050600360fc1b81600081518110610fe857610fe8611665565b60200101906001600160f81b031916908160001a905350600f60fb1b8160018151811061101757611017611665565b60200101906001600160f81b031916908160001a905350600061103b84600261150d565b61104690600161167b565b90505b60018111156110be576f181899199a1a9b1b9c1cb0b131b232b360811b85600f166010811061107a5761107a611665565b1a60f81b82828151811061109057611090611665565b60200101906001600160f81b031916908160001a90535060049490941c936110b7816116a9565b9050611049565b5083156106cb5760405162461bcd60e51b815260206004820181905260248201527f537472696e67733a20686578206c656e67746820696e73756666696369656e74604482015260640161039b565b600081815260018301602052604081205480156111f65760006111316001836116c0565b8554909150600090611145906001906116c0565b90508181146111aa57600086600001828154811061116557611165611665565b906000526020600020015490508087600001848154811061118857611188611665565b6000918252602080832090910192909255918252600188019052604090208390555b85548690806111bb576111bb6116d7565b600190038181906000526020600020016000905590558560010160008681526020019081526020016000206000905560019350505050610334565b6000915050610334565b60006020828403121561121257600080fd5b81356001600160e01b0319811681146106cb57600080fd5b6001600160a01b0381168114610ac457600080fd5b6000806000806080858703121561125557600080fd5b84356112608161122a565b935060208501356112708161122a565b925060408501356112808161122a565b915060608501356112908161122a565b939692955090935050565b6000602082840312156112ad57600080fd5b5035919050565b600080604083850312156112c757600080fd5b8235915060208301356112d98161122a565b809150509250929050565b600080604083850312156112f757600080fd5b50508035926020909101359150565b6000806040838503121561131957600080fd5b82356113248161122a565b915060208301356112d98161122a565b60008060006060848603121561134957600080fd5b83356113548161122a565b925060208401356113648161122a565b929592945050506040919091013590565b60006020828403121561138757600080fd5b815160ff811681146106cb57600080fd5b80516001600160701b03811681146113af57600080fd5b919050565b6000806000606084860312156113c957600080fd5b6113d284611398565b92506113e060208501611398565b9150604084015163ffffffff811681146113f957600080fd5b809150509250925092565b634e487b7160e01b600052601160045260246000fd5b600181815b8085111561145557816000190482111561143b5761143b611404565b8085161561144857918102915b93841c939080029061141f565b509250929050565b60008261146c57506001610334565b8161147957506000610334565b816001811461148f5760028114611499576114b5565b6001915050610334565b60ff8411156114aa576114aa611404565b50506001821b610334565b5060208310610133831016604e8410600b84101617156114d8575081810a610334565b6114e2838361141a565b80600019048211156114f6576114f6611404565b029392505050565b60006106cb60ff84168361145d565b600081600019048311821515161561152757611527611404565b500290565b60008261154957634e487b7160e01b600052601260045260246000fd5b500490565b60006020828403121561156057600080fd5b815180151581146106cb57600080fd5b60006020828403121561158257600080fd5b81516106cb8161122a565b60005b838110156115a8578181015183820152602001611590565b838111156115b7576000848401525b50505050565b7f416363657373436f6e74726f6c3a206163636f756e74200000000000000000008152600083516115f581601785016020880161158d565b7001034b99036b4b9b9b4b733903937b6329607d1b601791840191820152835161162681602884016020880161158d565b01602801949350505050565b602081526000825180602084015261165181604085016020870161158d565b601f01601f19169190910160400192915050565b634e487b7160e01b600052603260045260246000fd5b6000821982111561168e5761168e611404565b500190565b634e487b7160e01b600052604160045260246000fd5b6000816116b8576116b8611404565b506000190190565b6000828210156116d2576116d2611404565b500390565b634e487b7160e01b600052603160045260246000fdfea264697066735822122055ab363687204ee3c8f1bfe358b543e32e8f6710178ccdda7860b0a97e15076364736f6c63430008090033",
  "devdoc": {
    "kind": "dev",
    "methods": {
      "getRoleAdmin(bytes32)": {
        "details": "Returns the admin role that controls `role`. See {grantRole} and {revokeRole}. To change a role's admin, use {_setRoleAdmin}."
      },
      "getRoleMember(bytes32,uint256)": {
        "details": "Returns one of the accounts that have `role`. `index` must be a value between 0 and {getRoleMemberCount}, non-inclusive. Role bearers are not sorted in any particular way, and their ordering may change at any point. WARNING: When using {getRoleMember} and {getRoleMemberCount}, make sure you perform all queries on the same block. See the following https://forum.openzeppelin.com/t/iterating-over-elements-on-enumerableset-in-openzeppelin-contracts/2296[forum post] for more information."
      },
      "getRoleMemberCount(bytes32)": {
        "details": "Returns the number of accounts that have `role`. Can be used together with {getRoleMember} to enumerate all bearers of a role."
      },
      "grantRole(bytes32,address)": {
        "details": "Grants `role` to `account`. If `account` had not been already granted `role`, emits a {RoleGranted} event. Requirements: - the caller must have ``role``'s admin role. May emit a {RoleGranted} event."
      },
      "hasRole(bytes32,address)": {
        "details": "Returns `true` if `account` has been granted `role`."
      },
      "renounceRole(bytes32,address)": {
        "details": "Revokes `role` from the calling account. Roles are often managed via {grantRole} and {revokeRole}: this function's purpose is to provide a mechanism for accounts to lose their privileges if they are compromised (such as when a trusted device is misplaced). If the calling account had been revoked `role`, emits a {RoleRevoked} event. Requirements: - the caller must be `account`. May emit a {RoleRevoked} event."
      },
      "revokeRole(bytes32,address)": {
        "details": "Revokes `role` from `account`. If `account` had been granted `role`, emits a {RoleRevoked} event. Requirements: - the caller must have ``role``'s admin role. May emit a {RoleRevoked} event."
      },
      "supportsInterface(bytes4)": {
        "details": "See {IERC165-supportsInterface}."
      }
    },
    "version": 1
  },
  "userdoc": {
    "kind": "user",
    "methods": {
      "getStablePrice()": {
        "notice": "Calculate how much cost 1 stable token in ELD tokens"
      },
      "getTokenPrice()": {
        "notice": "Calculate how much cost 1 ELD token in stable tokens"
      }
    },
    "version": 1
  },
  "storageLayout": {
    "storage": [
      {
        "astId": 24,
        "contract": "contracts/PriceResolverUniV2Contract.sol:PriceResolverUniV2Contract",
        "label": "_roles",
        "offset": 0,
        "slot": "0",
        "type": "t_mapping(t_bytes32,t_struct(RoleData)19_storage)"
      },
      {
        "astId": 338,
        "contract": "contracts/PriceResolverUniV2Contract.sol:PriceResolverUniV2Contract",
        "label": "_roleMembers",
        "offset": 0,
        "slot": "1",
        "type": "t_mapping(t_bytes32,t_struct(AddressSet)1241_storage)"
      },
      {
        "astId": 1778,
        "contract": "contracts/PriceResolverUniV2Contract.sol:PriceResolverUniV2Contract",
        "label": "_tokenAddress",
        "offset": 0,
        "slot": "2",
        "type": "t_address"
      },
      {
        "astId": 1780,
        "contract": "contracts/PriceResolverUniV2Contract.sol:PriceResolverUniV2Contract",
        "label": "_stableAddress",
        "offset": 0,
        "slot": "3",
        "type": "t_address"
      },
      {
        "astId": 1782,
        "contract": "contracts/PriceResolverUniV2Contract.sol:PriceResolverUniV2Contract",
        "label": "_tokenPrice",
        "offset": 0,
        "slot": "4",
        "type": "t_uint256"
      },
      {
        "astId": 1784,
        "contract": "contracts/PriceResolverUniV2Contract.sol:PriceResolverUniV2Contract",
        "label": "_stablePrice",
        "offset": 0,
        "slot": "5",
        "type": "t_uint256"
      },
      {
        "astId": 2092,
        "contract": "contracts/PriceResolverUniV2Contract.sol:PriceResolverUniV2Contract",
        "label": "_dexPairInstance",
        "offset": 0,
        "slot": "6",
        "type": "t_contract(IUniswapV2Pair)1770"
      },
      {
        "astId": 2094,
        "contract": "contracts/PriceResolverUniV2Contract.sol:PriceResolverUniV2Contract",
        "label": "_initialised",
        "offset": 20,
        "slot": "6",
        "type": "t_bool"
      },
      {
        "astId": 2096,
        "contract": "contracts/PriceResolverUniV2Contract.sol:PriceResolverUniV2Contract",
        "label": "_tokenIs0",
        "offset": 21,
        "slot": "6",
        "type": "t_bool"
      }
    ],
    "types": {
      "t_address": {
        "encoding": "inplace",
        "label": "address",
        "numberOfBytes": "20"
      },
      "t_array(t_bytes32)dyn_storage": {
        "base": "t_bytes32",
        "encoding": "dynamic_array",
        "label": "bytes32[]",
        "numberOfBytes": "32"
      },
      "t_bool": {
        "encoding": "inplace",
        "label": "bool",
        "numberOfBytes": "1"
      },
      "t_bytes32": {
        "encoding": "inplace",
        "label": "bytes32",
        "numberOfBytes": "32"
      },
      "t_contract(IUniswapV2Pair)1770": {
        "encoding": "inplace",
        "label": "contract IUniswapV2Pair",
        "numberOfBytes": "20"
      },
      "t_mapping(t_address,t_bool)": {
        "encoding": "mapping",
        "key": "t_address",
        "label": "mapping(address => bool)",
        "numberOfBytes": "32",
        "value": "t_bool"
      },
      "t_mapping(t_bytes32,t_struct(AddressSet)1241_storage)": {
        "encoding": "mapping",
        "key": "t_bytes32",
        "label": "mapping(bytes32 => struct EnumerableSet.AddressSet)",
        "numberOfBytes": "32",
        "value": "t_struct(AddressSet)1241_storage"
      },
      "t_mapping(t_bytes32,t_struct(RoleData)19_storage)": {
        "encoding": "mapping",
        "key": "t_bytes32",
        "label": "mapping(bytes32 => struct AccessControl.RoleData)",
        "numberOfBytes": "32",
        "value": "t_struct(RoleData)19_storage"
      },
      "t_mapping(t_bytes32,t_uint256)": {
        "encoding": "mapping",
        "key": "t_bytes32",
        "label": "mapping(bytes32 => uint256)",
        "numberOfBytes": "32",
        "value": "t_uint256"
      },
      "t_struct(AddressSet)1241_storage": {
        "encoding": "inplace",
        "label": "struct EnumerableSet.AddressSet",
        "members": [
          {
            "astId": 1240,
            "contract": "contracts/PriceResolverUniV2Contract.sol:PriceResolverUniV2Contract",
            "label": "_inner",
            "offset": 0,
            "slot": "0",
            "type": "t_struct(Set)940_storage"
          }
        ],
        "numberOfBytes": "64"
      },
      "t_struct(RoleData)19_storage": {
        "encoding": "inplace",
        "label": "struct AccessControl.RoleData",
        "members": [
          {
            "astId": 16,
            "contract": "contracts/PriceResolverUniV2Contract.sol:PriceResolverUniV2Contract",
            "label": "members",
            "offset": 0,
            "slot": "0",
            "type": "t_mapping(t_address,t_bool)"
          },
          {
            "astId": 18,
            "contract": "contracts/PriceResolverUniV2Contract.sol:PriceResolverUniV2Contract",
            "label": "adminRole",
            "offset": 0,
            "slot": "1",
            "type": "t_bytes32"
          }
        ],
        "numberOfBytes": "64"
      },
      "t_struct(Set)940_storage": {
        "encoding": "inplace",
        "label": "struct EnumerableSet.Set",
        "members": [
          {
            "astId": 935,
            "contract": "contracts/PriceResolverUniV2Contract.sol:PriceResolverUniV2Contract",
            "label": "_values",
            "offset": 0,
            "slot": "0",
            "type": "t_array(t_bytes32)dyn_storage"
          },
          {
            "astId": 939,
            "contract": "contracts/PriceResolverUniV2Contract.sol:PriceResolverUniV2Contract",
            "label": "_indexes",
            "offset": 0,
            "slot": "1",
            "type": "t_mapping(t_bytes32,t_uint256)"
          }
        ],
        "numberOfBytes": "64"
      },
      "t_uint256": {
        "encoding": "inplace",
        "label": "uint256",
        "numberOfBytes": "32"
      }
    }
  }
}